{
  "_format": "hh-sol-artifact-1",
  "contractName": "SBTMembership",
  "sourceName": "contracts/SBTMembership.sol",
  "abi": [
    {
      "inputs": [
        {
          "internalType": "string",
          "name": "_name",
          "type": "string"
        },
        {
          "internalType": "string",
          "name": "_symbol",
          "type": "string"
        },
        {
          "internalType": "bool",
          "name": "_isLocked",
          "type": "bool"
        }
      ],
      "stateMutability": "nonpayable",
      "type": "constructor"
    },
    {
      "inputs": [
        {
          "internalType": "address",
          "name": "sender",
          "type": "address"
        },
        {
          "internalType": "uint256",
          "name": "tokenId",
          "type": "uint256"
        },
        {
          "internalType": "address",
          "name": "owner",
          "type": "address"
        }
      ],
      "name": "ERC721IncorrectOwner",
      "type": "error"
    },
    {
      "inputs": [
        {
          "internalType": "address",
          "name": "operator",
          "type": "address"
        },
        {
          "internalType": "uint256",
          "name": "tokenId",
          "type": "uint256"
        }
      ],
      "name": "ERC721InsufficientApproval",
      "type": "error"
    },
    {
      "inputs": [
        {
          "internalType": "address",
          "name": "approver",
          "type": "address"
        }
      ],
      "name": "ERC721InvalidApprover",
      "type": "error"
    },
    {
      "inputs": [
        {
          "internalType": "address",
          "name": "operator",
          "type": "address"
        }
      ],
      "name": "ERC721InvalidOperator",
      "type": "error"
    },
    {
      "inputs": [
        {
          "internalType": "address",
          "name": "owner",
          "type": "address"
        }
      ],
      "name": "ERC721InvalidOwner",
      "type": "error"
    },
    {
      "inputs": [
        {
          "internalType": "address",
          "name": "receiver",
          "type": "address"
        }
      ],
      "name": "ERC721InvalidReceiver",
      "type": "error"
    },
    {
      "inputs": [
        {
          "internalType": "address",
          "name": "sender",
          "type": "address"
        }
      ],
      "name": "ERC721InvalidSender",
      "type": "error"
    },
    {
      "inputs": [
        {
          "internalType": "uint256",
          "name": "tokenId",
          "type": "uint256"
        }
      ],
      "name": "ERC721NonexistentToken",
      "type": "error"
    },
    {
      "inputs": [],
      "name": "ErrLocked",
      "type": "error"
    },
    {
      "inputs": [],
      "name": "ErrNotFound",
      "type": "error"
    },
    {
      "anonymous": false,
      "inputs": [
        {
          "indexed": true,
          "internalType": "address",
          "name": "owner",
          "type": "address"
        },
        {
          "indexed": true,
          "internalType": "address",
          "name": "approved",
          "type": "address"
        },
        {
          "indexed": true,
          "internalType": "uint256",
          "name": "tokenId",
          "type": "uint256"
        }
      ],
      "name": "Approval",
      "type": "event"
    },
    {
      "anonymous": false,
      "inputs": [
        {
          "indexed": true,
          "internalType": "address",
          "name": "owner",
          "type": "address"
        },
        {
          "indexed": true,
          "internalType": "address",
          "name": "operator",
          "type": "address"
        },
        {
          "indexed": false,
          "internalType": "bool",
          "name": "approved",
          "type": "bool"
        }
      ],
      "name": "ApprovalForAll",
      "type": "event"
    },
    {
      "anonymous": false,
      "inputs": [
        {
          "indexed": false,
          "internalType": "uint256",
          "name": "_fromTokenId",
          "type": "uint256"
        },
        {
          "indexed": false,
          "internalType": "uint256",
          "name": "_toTokenId",
          "type": "uint256"
        }
      ],
      "name": "BatchMetadataUpdate",
      "type": "event"
    },
    {
      "anonymous": false,
      "inputs": [
        {
          "indexed": false,
          "internalType": "uint256",
          "name": "tokenId",
          "type": "uint256"
        }
      ],
      "name": "Locked",
      "type": "event"
    },
    {
      "anonymous": false,
      "inputs": [
        {
          "indexed": false,
          "internalType": "uint256",
          "name": "_tokenId",
          "type": "uint256"
        }
      ],
      "name": "MetadataUpdate",
      "type": "event"
    },
    {
      "anonymous": false,
      "inputs": [
        {
          "indexed": true,
          "internalType": "address",
          "name": "from",
          "type": "address"
        },
        {
          "indexed": true,
          "internalType": "address",
          "name": "to",
          "type": "address"
        },
        {
          "indexed": true,
          "internalType": "uint256",
          "name": "tokenId",
          "type": "uint256"
        }
      ],
      "name": "Transfer",
      "type": "event"
    },
    {
      "anonymous": false,
      "inputs": [
        {
          "indexed": false,
          "internalType": "uint256",
          "name": "tokenId",
          "type": "uint256"
        }
      ],
      "name": "Unlocked",
      "type": "event"
    },
    {
      "inputs": [
        {
          "internalType": "address",
          "name": "approved",
          "type": "address"
        },
        {
          "internalType": "uint256",
          "name": "tokenId",
          "type": "uint256"
        }
      ],
      "name": "approve",
      "outputs": [],
      "stateMutability": "nonpayable",
      "type": "function"
    },
    {
      "inputs": [
        {
          "internalType": "address",
          "name": "owner",
          "type": "address"
        }
      ],
      "name": "balanceOf",
      "outputs": [
        {
          "internalType": "uint256",
          "name": "",
          "type": "uint256"
        }
      ],
      "stateMutability": "view",
      "type": "function"
    },
    {
      "inputs": [
        {
          "internalType": "uint256",
          "name": "tokenId",
          "type": "uint256"
        }
      ],
      "name": "getApproved",
      "outputs": [
        {
          "internalType": "address",
          "name": "",
          "type": "address"
        }
      ],
      "stateMutability": "view",
      "type": "function"
    },
    {
      "inputs": [
        {
          "internalType": "address",
          "name": "owner",
          "type": "address"
        },
        {
          "internalType": "address",
          "name": "operator",
          "type": "address"
        }
      ],
      "name": "isApprovedForAll",
      "outputs": [
        {
          "internalType": "bool",
          "name": "",
          "type": "bool"
        }
      ],
      "stateMutability": "view",
      "type": "function"
    },
    {
      "inputs": [
        {
          "internalType": "uint256",
          "name": "tokenId",
          "type": "uint256"
        }
      ],
      "name": "locked",
      "outputs": [
        {
          "internalType": "bool",
          "name": "",
          "type": "bool"
        }
      ],
      "stateMutability": "view",
      "type": "function"
    },
    {
      "inputs": [],
      "name": "name",
      "outputs": [
        {
          "internalType": "string",
          "name": "",
          "type": "string"
        }
      ],
      "stateMutability": "view",
      "type": "function"
    },
    {
      "inputs": [
        {
          "internalType": "uint256",
          "name": "tokenId",
          "type": "uint256"
        }
      ],
      "name": "ownerOf",
      "outputs": [
        {
          "internalType": "address",
          "name": "",
          "type": "address"
        }
      ],
      "stateMutability": "view",
      "type": "function"
    },
    {
      "inputs": [
        {
          "internalType": "address",
          "name": "from",
          "type": "address"
        },
        {
          "internalType": "address",
          "name": "to",
          "type": "address"
        },
        {
          "internalType": "uint256",
          "name": "tokenId",
          "type": "uint256"
        }
      ],
      "name": "safeTransferFrom",
      "outputs": [],
      "stateMutability": "nonpayable",
      "type": "function"
    },
    {
      "inputs": [
        {
          "internalType": "address",
          "name": "from",
          "type": "address"
        },
        {
          "internalType": "address",
          "name": "to",
          "type": "address"
        },
        {
          "internalType": "uint256",
          "name": "tokenId",
          "type": "uint256"
        },
        {
          "internalType": "bytes",
          "name": "data",
          "type": "bytes"
        }
      ],
      "name": "safeTransferFrom",
      "outputs": [],
      "stateMutability": "nonpayable",
      "type": "function"
    },
    {
      "inputs": [
        {
          "internalType": "address",
          "name": "operator",
          "type": "address"
        },
        {
          "internalType": "bool",
          "name": "approved",
          "type": "bool"
        }
      ],
      "name": "setApprovalForAll",
      "outputs": [],
      "stateMutability": "nonpayable",
      "type": "function"
    },
    {
      "inputs": [
        {
          "internalType": "bytes4",
          "name": "interfaceId",
          "type": "bytes4"
        }
      ],
      "name": "supportsInterface",
      "outputs": [
        {
          "internalType": "bool",
          "name": "",
          "type": "bool"
        }
      ],
      "stateMutability": "view",
      "type": "function"
    },
    {
      "inputs": [],
      "name": "symbol",
      "outputs": [
        {
          "internalType": "string",
          "name": "",
          "type": "string"
        }
      ],
      "stateMutability": "view",
      "type": "function"
    },
    {
      "inputs": [
        {
          "internalType": "uint256",
          "name": "tokenId",
          "type": "uint256"
        }
      ],
      "name": "tokenURI",
      "outputs": [
        {
          "internalType": "string",
          "name": "",
          "type": "string"
        }
      ],
      "stateMutability": "view",
      "type": "function"
    },
    {
      "inputs": [
        {
          "internalType": "address",
          "name": "from",
          "type": "address"
        },
        {
          "internalType": "address",
          "name": "to",
          "type": "address"
        },
        {
          "internalType": "uint256",
          "name": "tokenId",
          "type": "uint256"
        }
      ],
      "name": "transferFrom",
      "outputs": [],
      "stateMutability": "nonpayable",
      "type": "function"
    }
  ],
  "bytecode": "0x60806040523480156200001157600080fd5b506040516200163138038062001631833981016040819052620000349162000136565b8282600062000044838262000249565b50600162000053828262000249565b50506007805460ff1916921515929092179091555062000315915050565b634e487b7160e01b600052604160045260246000fd5b600082601f8301126200009957600080fd5b81516001600160401b0380821115620000b657620000b662000071565b604051601f8301601f19908116603f01168101908282118183101715620000e157620000e162000071565b81604052838152602092508683858801011115620000fe57600080fd5b600091505b8382101562000122578582018301518183018401529082019062000103565b600093810190920192909252949350505050565b6000806000606084860312156200014c57600080fd5b83516001600160401b03808211156200016457600080fd5b620001728783880162000087565b945060208601519150808211156200018957600080fd5b50620001988682870162000087565b92505060408401518015158114620001af57600080fd5b809150509250925092565b600181811c90821680620001cf57607f821691505b602082108103620001f057634e487b7160e01b600052602260045260246000fd5b50919050565b601f8211156200024457600081815260208120601f850160051c810160208610156200021f5750805b601f850160051c820191505b8181101562000240578281556001016200022b565b5050505b505050565b81516001600160401b0381111562000265576200026562000071565b6200027d81620002768454620001ba565b84620001f6565b602080601f831160018114620002b557600084156200029c5750858301515b600019600386901b1c1916600185901b17855562000240565b600085815260208120601f198616915b82811015620002e657888601518255948401946001909101908401620002c5565b5085821015620003055787850151600019600388901b60f8161c191681555b5050505050600190811b01905550565b61130c80620003256000396000f3fe608060405234801561001057600080fd5b50600436106100ea5760003560e01c806370a082311161008c578063b45a3c0e11610066578063b45a3c0e146101e1578063b88d4fde146101f4578063c87b56dd14610207578063e985e9c51461021a57600080fd5b806370a08231146101a557806395d89b41146101c6578063a22cb465146101ce57600080fd5b8063095ea7b3116100c8578063095ea7b31461015757806323b872dd1461016c57806342842e0e1461017f5780636352211e1461019257600080fd5b806301ffc9a7146100ef57806306fdde0314610117578063081812fc1461012c575b600080fd5b6101026100fd366004610f7d565b610256565b60405190151581526020015b60405180910390f35b61011f61029a565b60405161010e9190610fea565b61013f61013a366004610ffd565b61032c565b6040516001600160a01b03909116815260200161010e565b61016a610165366004611032565b610355565b005b61016a61017a36600461105c565b610387565b61016a61018d36600461105c565b6103bb565b61013f6101a0366004610ffd565b6103ea565b6101b86101b3366004611098565b6103f5565b60405190815260200161010e565b61011f61045b565b61016a6101dc3660046110b3565b61046a565b6101026101ef366004610ffd565b610498565b61016a610202366004611105565b6104ef565b61011f610215366004610ffd565b610525565b6101026102283660046111e1565b6001600160a01b03918216600090815260056020908152604080832093909416825291909152205460ff1690565b60006001600160e01b031982167fb45a3c0e000000000000000000000000000000000000000000000000000000001480610294575061029482610636565b92915050565b6060600080546102a990611214565b80601f01602080910402602001604051908101604052809291908181526020018280546102d590611214565b80156103225780601f106102f757610100808354040283529160200191610322565b820191906000526020600020905b81548152906001019060200180831161030557829003601f168201915b5050505050905090565b600061033782610674565b506000828152600460205260409020546001600160a01b0316610294565b60075460ff16156103795760405163bd291a9560e01b815260040160405180910390fd5b61038382826106ad565b5050565b60075460ff16156103ab5760405163bd291a9560e01b815260040160405180910390fd5b6103b68383836106b8565b505050565b60075460ff16156103df5760405163bd291a9560e01b815260040160405180910390fd5b6103b6838383610756565b600061029482610674565b60006001600160a01b03821661043f576040517f89c62b64000000000000000000000000000000000000000000000000000000008152600060048201526024015b60405180910390fd5b506001600160a01b031660009081526003602052604090205490565b6060600180546102a990611214565b60075460ff161561048e5760405163bd291a9560e01b815260040160405180910390fd5b6103838282610771565b6000806104a483610674565b6001600160a01b0316036104e4576040517fae9a63f500000000000000000000000000000000000000000000000000000000815260040160405180910390fd5b505060075460ff1690565b60075460ff16156105135760405163bd291a9560e01b815260040160405180910390fd5b61051f8484848461077c565b50505050565b606061053082610674565b506000828152600660205260408120805461054a90611214565b80601f016020809104026020016040519081016040528092919081815260200182805461057690611214565b80156105c35780601f10610598576101008083540402835291602001916105c3565b820191906000526020600020905b8154815290600101906020018083116105a657829003601f168201915b5050505050905060006105e160408051602081019091526000815290565b905080516000036105f3575092915050565b81511561062557808260405160200161060d92919061124e565b60405160208183030381529060405292505050919050565b61062e84610793565b949350505050565b60006001600160e01b031982167f49064906000000000000000000000000000000000000000000000000000000001480610294575061029482610808565b6000818152600260205260408120546001600160a01b03168061029457604051637e27328960e01b815260048101849052602401610436565b6103838282336108a3565b6001600160a01b0382166106e257604051633250574960e11b815260006004820152602401610436565b60006106ef8383336108b0565b9050836001600160a01b0316816001600160a01b03161461051f576040517f64283d7b0000000000000000000000000000000000000000000000000000000081526001600160a01b0380861660048301526024820184905282166044820152606401610436565b6103b6838383604051806020016040528060008152506104ef565b6103833383836109b6565b610787848484610387565b61051f84848484610a6e565b606061079e82610674565b5060006107b660408051602081019091526000815290565b905060008151116107d65760405180602001604052806000815250610801565b806107e084610b97565b6040516020016107f192919061124e565b6040516020818303038152906040525b9392505050565b60006001600160e01b031982167f80ac58cd00000000000000000000000000000000000000000000000000000000148061086b57506001600160e01b031982167f5b5e139f00000000000000000000000000000000000000000000000000000000145b8061029457507f01ffc9a7000000000000000000000000000000000000000000000000000000006001600160e01b0319831614610294565b6103b68383836001610c37565b6000828152600260205260408120546001600160a01b03908116908316156108dd576108dd818486610d82565b6001600160a01b0381161561091b576108fa600085600080610c37565b6001600160a01b038116600090815260036020526040902080546000190190555b6001600160a01b0385161561094a576001600160a01b0385166000908152600360205260409020805460010190555b600084815260026020526040808220805473ffffffffffffffffffffffffffffffffffffffff19166001600160a01b0389811691821790925591518793918516917fddf252ad1be2c89b69c2b068fc378daa952ba7f163c4a11628f55a4df523b3ef91a4949350505050565b6001600160a01b038216610a01576040517f5b08ba180000000000000000000000000000000000000000000000000000000081526001600160a01b0383166004820152602401610436565b6001600160a01b03838116600081815260056020908152604080832094871680845294825291829020805460ff191686151590811790915591519182527f17307eab39ab6107e8899845ad3d59bd9653f200f220920489ca2b5937696c31910160405180910390a3505050565b6001600160a01b0383163b1561051f57604051630a85bd0160e11b81526001600160a01b0384169063150b7a0290610ab090339088908790879060040161127d565b6020604051808303816000875af1925050508015610aeb575060408051601f3d908101601f19168201909252610ae8918101906112b9565b60015b610b54573d808015610b19576040519150601f19603f3d011682016040523d82523d6000602084013e610b1e565b606091505b508051600003610b4c57604051633250574960e11b81526001600160a01b0385166004820152602401610436565b805181602001fd5b6001600160e01b03198116630a85bd0160e11b14610b9057604051633250574960e11b81526001600160a01b0385166004820152602401610436565b5050505050565b60606000610ba483610dff565b600101905060008167ffffffffffffffff811115610bc457610bc46110ef565b6040519080825280601f01601f191660200182016040528015610bee576020820181803683370190505b5090508181016020015b600019017f3031323334353637383961626364656600000000000000000000000000000000600a86061a8153600a8504945084610bf857509392505050565b8080610c4b57506001600160a01b03821615155b15610d45576000610c5b84610674565b90506001600160a01b03831615801590610c875750826001600160a01b0316816001600160a01b031614155b8015610cb957506001600160a01b0380821660009081526005602090815260408083209387168352929052205460ff16155b15610cfb576040517fa9fbf51f0000000000000000000000000000000000000000000000000000000081526001600160a01b0384166004820152602401610436565b8115610d435783856001600160a01b0316826001600160a01b03167f8c5be1e5ebec7d5bd14f71427d1e84f3dd0314c0f7b2291e5b200ac8c7c3b92560405160405180910390a45b505b50506000908152600460205260409020805473ffffffffffffffffffffffffffffffffffffffff19166001600160a01b0392909216919091179055565b610d8d838383610ee1565b6103b6576001600160a01b038316610dbb57604051637e27328960e01b815260048101829052602401610436565b6040517f177e802f0000000000000000000000000000000000000000000000000000000081526001600160a01b038316600482015260248101829052604401610436565b6000807a184f03e93ff9f4daa797ed6e38ed64bf6a1f0100000000000000008310610e48577a184f03e93ff9f4daa797ed6e38ed64bf6a1f010000000000000000830492506040015b6d04ee2d6d415b85acef81000000008310610e74576d04ee2d6d415b85acef8100000000830492506020015b662386f26fc100008310610e9257662386f26fc10000830492506010015b6305f5e1008310610eaa576305f5e100830492506008015b6127108310610ebe57612710830492506004015b60648310610ed0576064830492506002015b600a83106102945760010192915050565b60006001600160a01b0383161580159061062e5750826001600160a01b0316846001600160a01b03161480610f3b57506001600160a01b0380851660009081526005602090815260408083209387168352929052205460ff165b8061062e5750506000908152600460205260409020546001600160a01b03908116911614919050565b6001600160e01b031981168114610f7a57600080fd5b50565b600060208284031215610f8f57600080fd5b813561080181610f64565b60005b83811015610fb5578181015183820152602001610f9d565b50506000910152565b60008151808452610fd6816020860160208601610f9a565b601f01601f19169290920160200192915050565b6020815260006108016020830184610fbe565b60006020828403121561100f57600080fd5b5035919050565b80356001600160a01b038116811461102d57600080fd5b919050565b6000806040838503121561104557600080fd5b61104e83611016565b946020939093013593505050565b60008060006060848603121561107157600080fd5b61107a84611016565b925061108860208501611016565b9150604084013590509250925092565b6000602082840312156110aa57600080fd5b61080182611016565b600080604083850312156110c657600080fd5b6110cf83611016565b9150602083013580151581146110e457600080fd5b809150509250929050565b634e487b7160e01b600052604160045260246000fd5b6000806000806080858703121561111b57600080fd5b61112485611016565b935061113260208601611016565b925060408501359150606085013567ffffffffffffffff8082111561115657600080fd5b818701915087601f83011261116a57600080fd5b81358181111561117c5761117c6110ef565b604051601f8201601f19908116603f011681019083821181831017156111a4576111a46110ef565b816040528281528a60208487010111156111bd57600080fd5b82602086016020830137600060208483010152809550505050505092959194509250565b600080604083850312156111f457600080fd5b6111fd83611016565b915061120b60208401611016565b90509250929050565b600181811c9082168061122857607f821691505b60208210810361124857634e487b7160e01b600052602260045260246000fd5b50919050565b60008351611260818460208801610f9a565b835190830190611274818360208801610f9a565b01949350505050565b60006001600160a01b038087168352808616602084015250836040830152608060608301526112af6080830184610fbe565b9695505050505050565b6000602082840312156112cb57600080fd5b815161080181610f6456fea2646970667358221220acff1091ca70bb7bb9b83efa2f2c5615356521ab7048fbdbe372c6958011d21064736f6c63430008140033",
  "linkReferences": {},
  "deployedLinkReferences": {}
}