{
  "_format": "hh-sol-artifact-1",
  "contractName": "GovernanceToken",
  "sourceName": "contracts/dao/GovernanceToken.sol",
  "abi": [
    {
      "inputs": [
        {
          "internalType": "string",
          "name": "name_",
          "type": "string"
        },
        {
          "internalType": "string",
          "name": "symbol_",
          "type": "string"
        },
        {
          "internalType": "uint256",
          "name": "totalSupply_",
          "type": "uint256"
        }
      ],
      "stateMutability": "nonpayable",
      "type": "constructor"
    },
    {
      "inputs": [],
      "name": "CheckpointUnorderedInsertion",
      "type": "error"
    },
    {
      "inputs": [],
      "name": "ECDSAInvalidSignature",
      "type": "error"
    },
    {
      "inputs": [
        {
          "internalType": "uint256",
          "name": "length",
          "type": "uint256"
        }
      ],
      "name": "ECDSAInvalidSignatureLength",
      "type": "error"
    },
    {
      "inputs": [
        {
          "internalType": "bytes32",
          "name": "s",
          "type": "bytes32"
        }
      ],
      "name": "ECDSAInvalidSignatureS",
      "type": "error"
    },
    {
      "inputs": [
        {
          "internalType": "uint256",
          "name": "increasedSupply",
          "type": "uint256"
        },
        {
          "internalType": "uint256",
          "name": "cap",
          "type": "uint256"
        }
      ],
      "name": "ERC20ExceededSafeSupply",
      "type": "error"
    },
    {
      "inputs": [
        {
          "internalType": "address",
          "name": "spender",
          "type": "address"
        },
        {
          "internalType": "uint256",
          "name": "allowance",
          "type": "uint256"
        },
        {
          "internalType": "uint256",
          "name": "needed",
          "type": "uint256"
        }
      ],
      "name": "ERC20InsufficientAllowance",
      "type": "error"
    },
    {
      "inputs": [
        {
          "internalType": "address",
          "name": "sender",
          "type": "address"
        },
        {
          "internalType": "uint256",
          "name": "balance",
          "type": "uint256"
        },
        {
          "internalType": "uint256",
          "name": "needed",
          "type": "uint256"
        }
      ],
      "name": "ERC20InsufficientBalance",
      "type": "error"
    },
    {
      "inputs": [
        {
          "internalType": "address",
          "name": "approver",
          "type": "address"
        }
      ],
      "name": "ERC20InvalidApprover",
      "type": "error"
    },
    {
      "inputs": [
        {
          "internalType": "address",
          "name": "receiver",
          "type": "address"
        }
      ],
      "name": "ERC20InvalidReceiver",
      "type": "error"
    },
    {
      "inputs": [
        {
          "internalType": "address",
          "name": "sender",
          "type": "address"
        }
      ],
      "name": "ERC20InvalidSender",
      "type": "error"
    },
    {
      "inputs": [
        {
          "internalType": "address",
          "name": "spender",
          "type": "address"
        }
      ],
      "name": "ERC20InvalidSpender",
      "type": "error"
    },
    {
      "inputs": [
        {
          "internalType": "uint256",
          "name": "deadline",
          "type": "uint256"
        }
      ],
      "name": "ERC2612ExpiredSignature",
      "type": "error"
    },
    {
      "inputs": [
        {
          "internalType": "address",
          "name": "signer",
          "type": "address"
        },
        {
          "internalType": "address",
          "name": "owner",
          "type": "address"
        }
      ],
      "name": "ERC2612InvalidSigner",
      "type": "error"
    },
    {
      "inputs": [
        {
          "internalType": "uint256",
          "name": "timepoint",
          "type": "uint256"
        },
        {
          "internalType": "uint48",
          "name": "clock",
          "type": "uint48"
        }
      ],
      "name": "ERC5805FutureLookup",
      "type": "error"
    },
    {
      "inputs": [],
      "name": "ERC6372InconsistentClock",
      "type": "error"
    },
    {
      "inputs": [
        {
          "internalType": "address",
          "name": "account",
          "type": "address"
        },
        {
          "internalType": "uint256",
          "name": "currentNonce",
          "type": "uint256"
        }
      ],
      "name": "InvalidAccountNonce",
      "type": "error"
    },
    {
      "inputs": [],
      "name": "InvalidShortString",
      "type": "error"
    },
    {
      "inputs": [
        {
          "internalType": "uint8",
          "name": "bits",
          "type": "uint8"
        },
        {
          "internalType": "uint256",
          "name": "value",
          "type": "uint256"
        }
      ],
      "name": "SafeCastOverflowedUintDowncast",
      "type": "error"
    },
    {
      "inputs": [
        {
          "internalType": "string",
          "name": "str",
          "type": "string"
        }
      ],
      "name": "StringTooLong",
      "type": "error"
    },
    {
      "inputs": [
        {
          "internalType": "uint256",
          "name": "expiry",
          "type": "uint256"
        }
      ],
      "name": "VotesExpiredSignature",
      "type": "error"
    },
    {
      "anonymous": false,
      "inputs": [
        {
          "indexed": true,
          "internalType": "address",
          "name": "owner",
          "type": "address"
        },
        {
          "indexed": true,
          "internalType": "address",
          "name": "spender",
          "type": "address"
        },
        {
          "indexed": false,
          "internalType": "uint256",
          "name": "value",
          "type": "uint256"
        }
      ],
      "name": "Approval",
      "type": "event"
    },
    {
      "anonymous": false,
      "inputs": [
        {
          "indexed": true,
          "internalType": "address",
          "name": "delegator",
          "type": "address"
        },
        {
          "indexed": true,
          "internalType": "address",
          "name": "fromDelegate",
          "type": "address"
        },
        {
          "indexed": true,
          "internalType": "address",
          "name": "toDelegate",
          "type": "address"
        }
      ],
      "name": "DelegateChanged",
      "type": "event"
    },
    {
      "anonymous": false,
      "inputs": [
        {
          "indexed": true,
          "internalType": "address",
          "name": "delegate",
          "type": "address"
        },
        {
          "indexed": false,
          "internalType": "uint256",
          "name": "previousVotes",
          "type": "uint256"
        },
        {
          "indexed": false,
          "internalType": "uint256",
          "name": "newVotes",
          "type": "uint256"
        }
      ],
      "name": "DelegateVotesChanged",
      "type": "event"
    },
    {
      "anonymous": false,
      "inputs": [],
      "name": "EIP712DomainChanged",
      "type": "event"
    },
    {
      "anonymous": false,
      "inputs": [
        {
          "indexed": true,
          "internalType": "address",
          "name": "from",
          "type": "address"
        },
        {
          "indexed": true,
          "internalType": "address",
          "name": "to",
          "type": "address"
        },
        {
          "indexed": false,
          "internalType": "uint256",
          "name": "value",
          "type": "uint256"
        }
      ],
      "name": "Transfer",
      "type": "event"
    },
    {
      "inputs": [],
      "name": "CLOCK_MODE",
      "outputs": [
        {
          "internalType": "string",
          "name": "",
          "type": "string"
        }
      ],
      "stateMutability": "view",
      "type": "function"
    },
    {
      "inputs": [],
      "name": "DOMAIN_SEPARATOR",
      "outputs": [
        {
          "internalType": "bytes32",
          "name": "",
          "type": "bytes32"
        }
      ],
      "stateMutability": "view",
      "type": "function"
    },
    {
      "inputs": [
        {
          "internalType": "address",
          "name": "owner",
          "type": "address"
        },
        {
          "internalType": "address",
          "name": "spender",
          "type": "address"
        }
      ],
      "name": "allowance",
      "outputs": [
        {
          "internalType": "uint256",
          "name": "",
          "type": "uint256"
        }
      ],
      "stateMutability": "view",
      "type": "function"
    },
    {
      "inputs": [
        {
          "internalType": "address",
          "name": "spender",
          "type": "address"
        },
        {
          "internalType": "uint256",
          "name": "value",
          "type": "uint256"
        }
      ],
      "name": "approve",
      "outputs": [
        {
          "internalType": "bool",
          "name": "",
          "type": "bool"
        }
      ],
      "stateMutability": "nonpayable",
      "type": "function"
    },
    {
      "inputs": [
        {
          "internalType": "address",
          "name": "account",
          "type": "address"
        }
      ],
      "name": "balanceOf",
      "outputs": [
        {
          "internalType": "uint256",
          "name": "",
          "type": "uint256"
        }
      ],
      "stateMutability": "view",
      "type": "function"
    },
    {
      "inputs": [
        {
          "internalType": "address",
          "name": "account",
          "type": "address"
        },
        {
          "internalType": "uint32",
          "name": "pos",
          "type": "uint32"
        }
      ],
      "name": "checkpoints",
      "outputs": [
        {
          "components": [
            {
              "internalType": "uint48",
              "name": "_key",
              "type": "uint48"
            },
            {
              "internalType": "uint208",
              "name": "_value",
              "type": "uint208"
            }
          ],
          "internalType": "struct Checkpoints.Checkpoint208",
          "name": "",
          "type": "tuple"
        }
      ],
      "stateMutability": "view",
      "type": "function"
    },
    {
      "inputs": [],
      "name": "clock",
      "outputs": [
        {
          "internalType": "uint48",
          "name": "",
          "type": "uint48"
        }
      ],
      "stateMutability": "view",
      "type": "function"
    },
    {
      "inputs": [],
      "name": "decimals",
      "outputs": [
        {
          "internalType": "uint8",
          "name": "",
          "type": "uint8"
        }
      ],
      "stateMutability": "view",
      "type": "function"
    },
    {
      "inputs": [
        {
          "internalType": "address",
          "name": "delegatee",
          "type": "address"
        }
      ],
      "name": "delegate",
      "outputs": [],
      "stateMutability": "nonpayable",
      "type": "function"
    },
    {
      "inputs": [
        {
          "internalType": "address",
          "name": "delegatee",
          "type": "address"
        },
        {
          "internalType": "uint256",
          "name": "nonce",
          "type": "uint256"
        },
        {
          "internalType": "uint256",
          "name": "expiry",
          "type": "uint256"
        },
        {
          "internalType": "uint8",
          "name": "v",
          "type": "uint8"
        },
        {
          "internalType": "bytes32",
          "name": "r",
          "type": "bytes32"
        },
        {
          "internalType": "bytes32",
          "name": "s",
          "type": "bytes32"
        }
      ],
      "name": "delegateBySig",
      "outputs": [],
      "stateMutability": "nonpayable",
      "type": "function"
    },
    {
      "inputs": [
        {
          "internalType": "address",
          "name": "account",
          "type": "address"
        }
      ],
      "name": "delegates",
      "outputs": [
        {
          "internalType": "address",
          "name": "",
          "type": "address"
        }
      ],
      "stateMutability": "view",
      "type": "function"
    },
    {
      "inputs": [],
      "name": "eip712Domain",
      "outputs": [
        {
          "internalType": "bytes1",
          "name": "fields",
          "type": "bytes1"
        },
        {
          "internalType": "string",
          "name": "name",
          "type": "string"
        },
        {
          "internalType": "string",
          "name": "version",
          "type": "string"
        },
        {
          "internalType": "uint256",
          "name": "chainId",
          "type": "uint256"
        },
        {
          "internalType": "address",
          "name": "verifyingContract",
          "type": "address"
        },
        {
          "internalType": "bytes32",
          "name": "salt",
          "type": "bytes32"
        },
        {
          "internalType": "uint256[]",
          "name": "extensions",
          "type": "uint256[]"
        }
      ],
      "stateMutability": "view",
      "type": "function"
    },
    {
      "inputs": [
        {
          "internalType": "uint256",
          "name": "timepoint",
          "type": "uint256"
        }
      ],
      "name": "getPastTotalSupply",
      "outputs": [
        {
          "internalType": "uint256",
          "name": "",
          "type": "uint256"
        }
      ],
      "stateMutability": "view",
      "type": "function"
    },
    {
      "inputs": [
        {
          "internalType": "address",
          "name": "account",
          "type": "address"
        },
        {
          "internalType": "uint256",
          "name": "timepoint",
          "type": "uint256"
        }
      ],
      "name": "getPastVotes",
      "outputs": [
        {
          "internalType": "uint256",
          "name": "",
          "type": "uint256"
        }
      ],
      "stateMutability": "view",
      "type": "function"
    },
    {
      "inputs": [
        {
          "internalType": "address",
          "name": "account",
          "type": "address"
        }
      ],
      "name": "getVotes",
      "outputs": [
        {
          "internalType": "uint256",
          "name": "",
          "type": "uint256"
        }
      ],
      "stateMutability": "view",
      "type": "function"
    },
    {
      "inputs": [],
      "name": "name",
      "outputs": [
        {
          "internalType": "string",
          "name": "",
          "type": "string"
        }
      ],
      "stateMutability": "view",
      "type": "function"
    },
    {
      "inputs": [
        {
          "internalType": "address",
          "name": "owner",
          "type": "address"
        }
      ],
      "name": "nonces",
      "outputs": [
        {
          "internalType": "uint256",
          "name": "",
          "type": "uint256"
        }
      ],
      "stateMutability": "view",
      "type": "function"
    },
    {
      "inputs": [
        {
          "internalType": "address",
          "name": "account",
          "type": "address"
        }
      ],
      "name": "numCheckpoints",
      "outputs": [
        {
          "internalType": "uint32",
          "name": "",
          "type": "uint32"
        }
      ],
      "stateMutability": "view",
      "type": "function"
    },
    {
      "inputs": [
        {
          "internalType": "address",
          "name": "owner",
          "type": "address"
        },
        {
          "internalType": "address",
          "name": "spender",
          "type": "address"
        },
        {
          "internalType": "uint256",
          "name": "value",
          "type": "uint256"
        },
        {
          "internalType": "uint256",
          "name": "deadline",
          "type": "uint256"
        },
        {
          "internalType": "uint8",
          "name": "v",
          "type": "uint8"
        },
        {
          "internalType": "bytes32",
          "name": "r",
          "type": "bytes32"
        },
        {
          "internalType": "bytes32",
          "name": "s",
          "type": "bytes32"
        }
      ],
      "name": "permit",
      "outputs": [],
      "stateMutability": "nonpayable",
      "type": "function"
    },
    {
      "inputs": [],
      "name": "symbol",
      "outputs": [
        {
          "internalType": "string",
          "name": "",
          "type": "string"
        }
      ],
      "stateMutability": "view",
      "type": "function"
    },
    {
      "inputs": [],
      "name": "totalSupply",
      "outputs": [
        {
          "internalType": "uint256",
          "name": "",
          "type": "uint256"
        }
      ],
      "stateMutability": "view",
      "type": "function"
    },
    {
      "inputs": [
        {
          "internalType": "address",
          "name": "to",
          "type": "address"
        },
        {
          "internalType": "uint256",
          "name": "value",
          "type": "uint256"
        }
      ],
      "name": "transfer",
      "outputs": [
        {
          "internalType": "bool",
          "name": "",
          "type": "bool"
        }
      ],
      "stateMutability": "nonpayable",
      "type": "function"
    },
    {
      "inputs": [
        {
          "internalType": "address",
          "name": "from",
          "type": "address"
        },
        {
          "internalType": "address",
          "name": "to",
          "type": "address"
        },
        {
          "internalType": "uint256",
          "name": "value",
          "type": "uint256"
        }
      ],
      "name": "transferFrom",
      "outputs": [
        {
          "internalType": "bool",
          "name": "",
          "type": "bool"
        }
      ],
      "stateMutability": "nonpayable",
      "type": "function"
    }
  ],
  "bytecode": "0x6101606040523480156200001257600080fd5b5060405162002d4638038062002d46833981016040819052620000359162000982565b6040518060400160405280600b81526020016a2437bba220a7aa37b5b2b760a91b81525080604051806040016040528060018152602001603160f81b8152508585816003908162000087919062000a83565b50600462000096828262000a83565b50620000a89150839050600562000166565b61012052620000b981600662000166565b61014052815160208084019190912060e052815190820120610100524660a0526200014760e05161010051604080517f8b73c3c69bb8fe3d512ecc4cf759cc79239f7b179b0ffacaa9a75d522b39400f60208201529081019290925260608201524660808201523060a082015260009060c00160405160208183030381529060405280519060200120905090565b60805250503060c052506200015d33826200019f565b50505062000c38565b600060208351101562000186576200017e83620001e1565b905062000199565b8162000193848262000a83565b5060ff90505b92915050565b6001600160a01b038216620001cf5760405163ec442f0560e01b8152600060048201526024015b60405180910390fd5b620001dd6000838362000224565b5050565b600080829050601f815111156200020f578260405163305a27a960e01b8152600401620001c6919062000b4f565b80516200021c8262000b84565b179392505050565b6200023183838362000236565b505050565b62000243838383620002a5565b6001600160a01b038316620002985760006200025e60025490565b90506001600160d01b03808211156200029557604051630e58ae9360e11b81526004810183905260248101829052604401620001c6565b50505b62000231838383620003d8565b6001600160a01b038316620002d4578060026000828254620002c8919062000bbf565b90915550620003489050565b6001600160a01b03831660009081526020819052604090205481811015620003295760405163391434e360e21b81526001600160a01b03851660048201526024810182905260448101839052606401620001c6565b6001600160a01b03841660009081526020819052604090209082900390555b6001600160a01b038216620003665760028054829003905562000385565b6001600160a01b03821660009081526020819052604090208054820190555b816001600160a01b0316836001600160a01b03167fddf252ad1be2c89b69c2b068fc378daa952ba7f163c4a11628f55a4df523b3ef83604051620003cb91815260200190565b60405180910390a3505050565b6001600160a01b0383166200040d576200040a600a620009a56200047060201b17620004048462000485565b620004bf565b50505b6001600160a01b0382166200043c5762000439600a620009b1620004fc60201b17620004048462000485565b50505b6001600160a01b0383811660009081526008602052604080822054858416835291205462000231929182169116836200050a565b60006200047e828462000bd5565b9392505050565b60006001600160d01b03821115620004bb576040516306dfcc6560e41b815260d0600482015260248101839052604401620001c6565b5090565b600080620004ef620004d062000671565b620004e6620004df8862000682565b868860201c565b879190620006d1565b915091505b935093915050565b60006200047e828462000bff565b816001600160a01b0316836001600160a01b0316141580156200052d5750600081115b1562000231576001600160a01b03831615620005d0576001600160a01b0383166000908152600960209081526040822082916200057b9190620004fc901b620009b117620004048662000485565b6001600160d01b031691506001600160d01b03169150846001600160a01b031660008051602062002d268339815191528383604051620005c5929190918252602082015260400190565b60405180910390a250505b6001600160a01b0382161562000231576001600160a01b03821660009081526009602090815260408220829162000618919062000470901b620009a517620004048662000485565b6001600160d01b031691506001600160d01b03169150836001600160a01b031660008051602062002d26833981519152838360405162000662929190918252602082015260400190565b60405180910390a25050505050565b60006200067d620006e1565b905090565b80546000908015620006c857620006ae83620006a060018462000c22565b600091825260209091200190565b54660100000000000090046001600160d01b03166200047e565b60009392505050565b600080620004ef858585620006ee565b60006200067d4362000880565b825460009081908015620008215760006200071087620006a060018562000c22565b60408051808201909152905465ffffffffffff80821680845266010000000000009092046001600160d01b0316602084015291925090871610156200076857604051632520601d60e01b815260040160405180910390fd5b805165ffffffffffff808816911603620007bc57846200078f88620006a060018662000c22565b80546001600160d01b039290921666010000000000000265ffffffffffff90921691909117905562000810565b6040805180820190915265ffffffffffff80881682526001600160d01b0380881660208085019182528b54600181018d5560008d815291909120945191519092166601000000000000029216919091179101555b602001519250839150620004f49050565b50506040805180820190915265ffffffffffff80851682526001600160d01b0380851660208085019182528854600181018a5560008a8152918220955192519093166601000000000000029190931617920191909155905081620004f4565b600065ffffffffffff821115620004bb576040516306dfcc6560e41b81526030600482015260248101839052604401620001c6565b634e487b7160e01b600052604160045260246000fd5b60005b83811015620008e8578181015183820152602001620008ce565b50506000910152565b600082601f8301126200090357600080fd5b81516001600160401b0380821115620009205762000920620008b5565b604051601f8301601f19908116603f011681019082821181831017156200094b576200094b620008b5565b816040528381528660208588010111156200096557600080fd5b62000978846020830160208901620008cb565b9695505050505050565b6000806000606084860312156200099857600080fd5b83516001600160401b0380821115620009b057600080fd5b620009be87838801620008f1565b94506020860151915080821115620009d557600080fd5b50620009e486828701620008f1565b925050604084015190509250925092565b600181811c9082168062000a0a57607f821691505b60208210810362000a2b57634e487b7160e01b600052602260045260246000fd5b50919050565b601f8211156200023157600081815260208120601f850160051c8101602086101562000a5a5750805b601f850160051c820191505b8181101562000a7b5782815560010162000a66565b505050505050565b81516001600160401b0381111562000a9f5762000a9f620008b5565b62000ab78162000ab08454620009f5565b8462000a31565b602080601f83116001811462000aef576000841562000ad65750858301515b600019600386901b1c1916600185901b17855562000a7b565b600085815260208120601f198616915b8281101562000b205788860151825594840194600190910190840162000aff565b508582101562000b3f5787850151600019600388901b60f8161c191681555b5050505050600190811b01905550565b602081526000825180602084015262000b70816040850160208701620008cb565b601f01601f19169190910160400192915050565b8051602080830151919081101562000a2b5760001960209190910360031b1b16919050565b634e487b7160e01b600052601160045260246000fd5b8082018082111562000199576200019962000ba9565b6001600160d01b0381811683821601908082111562000bf85762000bf862000ba9565b5092915050565b6001600160d01b0382811682821603908082111562000bf85762000bf862000ba9565b8181038181111562000199576200019962000ba9565b60805160a05160c05160e05161010051610120516101405161209362000c936000396000610e1b01526000610dee01526000610bd101526000610ba901526000610b0401526000610b2e01526000610b5801526120936000f3fe608060405234801561001057600080fd5b506004361061018d5760003560e01c806370a08231116100e35780639ab24eb01161008c578063d505accf11610066578063d505accf14610375578063dd62ed3e14610388578063f1127ed8146103c157600080fd5b80639ab24eb01461033c578063a9059cbb1461034f578063c3cda5201461036257600080fd5b80638e539e8c116100bd5780638e539e8c1461030257806391ddadf41461031557806395d89b411461033457600080fd5b806370a08231146102ab5780637ecebe00146102d457806384b0196e146102e757600080fd5b80633644e51511610145578063587cde1e1161011f578063587cde1e1461022a5780635c19a95c1461026e5780636fcfff451461028357600080fd5b80633644e515146102075780633a46b1a81461020f5780634bf5d7e91461022257600080fd5b806318160ddd1161017657806318160ddd146101d357806323b872dd146101e5578063313ce567146101f857600080fd5b806306fdde0314610192578063095ea7b3146101b0575b600080fd5b61019a610400565b6040516101a79190611c7b565b60405180910390f35b6101c36101be366004611caa565b610492565b60405190151581526020016101a7565b6002545b6040519081526020016101a7565b6101c36101f3366004611cd4565b6104ac565b604051601281526020016101a7565b6101d76104d0565b6101d761021d366004611caa565b6104df565b61019a610565565b610256610238366004611d10565b6001600160a01b039081166000908152600860205260409020541690565b6040516001600160a01b0390911681526020016101a7565b61028161027c366004611d10565b6105f6565b005b610296610291366004611d10565b610605565b60405163ffffffff90911681526020016101a7565b6101d76102b9366004611d10565b6001600160a01b031660009081526020819052604090205490565b6101d76102e2366004611d10565b610610565b6102ef61061b565b6040516101a79796959493929190611d2b565b6101d7610310366004611ddd565b61067d565b61031d6106e7565b60405165ffffffffffff90911681526020016101a7565b61019a6106f1565b6101d761034a366004611d10565b610700565b6101c361035d366004611caa565b610730565b610281610370366004611e07565b61073e565b610281610383366004611e5f565b610814565b6101d7610396366004611ec9565b6001600160a01b03918216600090815260016020908152604080832093909416825291909152205490565b6103d46103cf366004611efc565b610980565b60408051825165ffffffffffff1681526020928301516001600160d01b031692810192909252016101a7565b60606003805461040f90611f3c565b80601f016020809104026020016040519081016040528092919081815260200182805461043b90611f3c565b80156104885780601f1061045d57610100808354040283529160200191610488565b820191906000526020600020905b81548152906001019060200180831161046b57829003601f168201915b5050505050905090565b6000336104a08185856109bd565b60019150505b92915050565b6000336104ba8582856109cf565b6104c5858585610a66565b506001949350505050565b60006104da610af7565b905090565b6000806104ea6106e7565b90508065ffffffffffff16831061052a57604051637669fc0f60e11b81526004810184905265ffffffffffff821660248201526044015b60405180910390fd5b61055461053684610c22565b6001600160a01b038616600090815260096020526040902090610c59565b6001600160d01b0316949350505050565b606061056f610d12565b65ffffffffffff1661057f6106e7565b65ffffffffffff16146105be576040517f6ff0714000000000000000000000000000000000000000000000000000000000815260040160405180910390fd5b5060408051808201909152601d81527f6d6f64653d626c6f636b6e756d6265722666726f6d3d64656661756c74000000602082015290565b336106018183610d1d565b5050565b60006104a682610da7565b60006104a682610dc9565b60006060806000806000606061062f610de7565b610637610e14565b604080516000808252602082019092527f0f000000000000000000000000000000000000000000000000000000000000009b939a50919850469750309650945092509050565b6000806106886106e7565b90508065ffffffffffff1683106106c357604051637669fc0f60e11b81526004810184905265ffffffffffff82166024820152604401610521565b6106d76106cf84610c22565b600a90610c59565b6001600160d01b03169392505050565b60006104da610d12565b60606004805461040f90611f3c565b6001600160a01b038116600090815260096020526040812061072190610e41565b6001600160d01b031692915050565b6000336104a0818585610a66565b8342111561077b576040517f4683af0e00000000000000000000000000000000000000000000000000000000815260048101859052602401610521565b604080517fe48329057bfd03d55e49b547132e39cffd9c1820ad7b9d4c5307691425d15adf60208201526001600160a01b0388169181019190915260608101869052608081018590526000906107f5906107ed9060a00160405160208183030381529060405280519060200120610e7d565b858585610ec5565b90506108018187610ef3565b61080b8188610d1d565b50505050505050565b83421115610851576040517f6279130200000000000000000000000000000000000000000000000000000000815260048101859052602401610521565b60007f6e71edae12b1b97f4d1f60370fef10105fa2faae0126114a169c64845d6126c988888861089e8c6001600160a01b0316600090815260076020526040902080546001810190915590565b6040805160208101969096526001600160a01b0394851690860152929091166060840152608083015260a082015260c0810186905260e00160405160208183030381529060405280519060200120905060006108f982610e7d565b9050600061090982878787610ec5565b9050896001600160a01b0316816001600160a01b031614610969576040517f4b800e460000000000000000000000000000000000000000000000000000000081526001600160a01b0380831660048301528b166024820152604401610521565b6109748a8a8a6109bd565b50505050505050505050565b604080518082019091526000808252602082015261099e8383610f5f565b9392505050565b600061099e8284611f8c565b600061099e8284611fb3565b6109ca8383836001610f95565b505050565b6001600160a01b038381166000908152600160209081526040808320938616835292905220546000198114610a605781811015610a51576040517ffb8f41b20000000000000000000000000000000000000000000000000000000081526001600160a01b03841660048201526024810182905260448101839052606401610521565b610a6084848484036000610f95565b50505050565b6001600160a01b038316610aa9576040517f96c6fd1e00000000000000000000000000000000000000000000000000000000815260006004820152602401610521565b6001600160a01b038216610aec576040517fec442f0500000000000000000000000000000000000000000000000000000000815260006004820152602401610521565b6109ca83838361109c565b6000306001600160a01b037f000000000000000000000000000000000000000000000000000000000000000016148015610b5057507f000000000000000000000000000000000000000000000000000000000000000046145b15610b7a57507f000000000000000000000000000000000000000000000000000000000000000090565b6104da604080517f8b73c3c69bb8fe3d512ecc4cf759cc79239f7b179b0ffacaa9a75d522b39400f60208201527f0000000000000000000000000000000000000000000000000000000000000000918101919091527f000000000000000000000000000000000000000000000000000000000000000060608201524660808201523060a082015260009060c00160405160208183030381529060405280519060200120905090565b600065ffffffffffff821115610c55576040516306dfcc6560e41b81526030600482015260248101839052604401610521565b5090565b815460009081816005811115610cb8576000610c74846110a7565b610c7e9085611fd3565b60008881526020902090915081015465ffffffffffff9081169087161015610ca857809150610cb6565b610cb3816001611fe6565b92505b505b6000610cc68787858561118f565b90508015610d0457610ceb87610cdd600184611fd3565b600091825260209091200190565b54660100000000000090046001600160d01b0316610d07565b60005b979650505050505050565b60006104da43610c22565b6001600160a01b0382811660008181526008602052604080822080548686167fffffffffffffffffffffffff0000000000000000000000000000000000000000821681179092559151919094169392849290917f3134e8a2e6d97e929a7e54011ea5485d7d196dd5f0ba4d4ef95803e8e3fc257f9190a46109ca8183610da2866111f1565b61120f565b6001600160a01b0381166000908152600960205260408120546104a69061137b565b6001600160a01b0381166000908152600760205260408120546104a6565b60606104da7f000000000000000000000000000000000000000000000000000000000000000060056113ac565b60606104da7f000000000000000000000000000000000000000000000000000000000000000060066113ac565b80546000908015610e7457610e5b83610cdd600184611fd3565b54660100000000000090046001600160d01b031661099e565b60009392505050565b60006104a6610e8a610af7565b836040517f19010000000000000000000000000000000000000000000000000000000000008152600281019290925260228201526042902090565b600080600080610ed788888888611457565b925092509250610ee78282611526565b50909695505050505050565b6001600160a01b03821660009081526007602052604090208054600181019091558181146109ca576040517f752d88c00000000000000000000000000000000000000000000000000000000081526001600160a01b038416600482015260248101829052604401610521565b60408051808201909152600080825260208201526001600160a01b038316600090815260096020526040902061099e908361162a565b6001600160a01b038416610fd8576040517fe602df0500000000000000000000000000000000000000000000000000000000815260006004820152602401610521565b6001600160a01b03831661101b576040517f94280d6200000000000000000000000000000000000000000000000000000000815260006004820152602401610521565b6001600160a01b0380851660009081526001602090815260408083209387168352929052208290558015610a6057826001600160a01b0316846001600160a01b03167f8c5be1e5ebec7d5bd14f71427d1e84f3dd0314c0f7b2291e5b200ac8c7c3b9258460405161108e91815260200190565b60405180910390a350505050565b6109ca83838361169d565b6000816000036110b957506000919050565b600060016110c68461171d565b901c6001901b905060018184816110df576110df611ff9565b048201901c905060018184816110f7576110f7611ff9565b048201901c9050600181848161110f5761110f611ff9565b048201901c9050600181848161112757611127611ff9565b048201901c9050600181848161113f5761113f611ff9565b048201901c9050600181848161115757611157611ff9565b048201901c9050600181848161116f5761116f611ff9565b048201901c905061099e8182858161118957611189611ff9565b046117b1565b60005b818310156111e95760006111a684846117c7565b60008781526020902090915065ffffffffffff86169082015465ffffffffffff1611156111d5578092506111e3565b6111e0816001611fe6565b93505b50611192565b509392505050565b6001600160a01b0381166000908152602081905260408120546104a6565b816001600160a01b0316836001600160a01b0316141580156112315750600081115b156109ca576001600160a01b038316156112d9576001600160a01b03831660009081526009602052604081208190611274906109b161126f866117e2565b611816565b6001600160d01b031691506001600160d01b03169150846001600160a01b03167fdec2bacdd2f05b59de34da9b523dff8be42e5e38e818c82fdb0bae774387a72483836040516112ce929190918252602082015260400190565b60405180910390a250505b6001600160a01b038216156109ca576001600160a01b03821660009081526009602052604081208190611312906109a561126f866117e2565b6001600160d01b031691506001600160d01b03169150836001600160a01b03167fdec2bacdd2f05b59de34da9b523dff8be42e5e38e818c82fdb0bae774387a724838360405161136c929190918252602082015260400190565b60405180910390a25050505050565b600063ffffffff821115610c55576040516306dfcc6560e41b81526020600482015260248101839052604401610521565b606060ff83146113c6576113bf8361184f565b90506104a6565b8180546113d290611f3c565b80601f01602080910402602001604051908101604052809291908181526020018280546113fe90611f3c565b801561144b5780601f106114205761010080835404028352916020019161144b565b820191906000526020600020905b81548152906001019060200180831161142e57829003601f168201915b505050505090506104a6565b600080807f7fffffffffffffffffffffffffffffff5d576e7357a4501ddfe92f46681b20a0841115611492575060009150600390508261151c565b604080516000808252602082018084528a905260ff891692820192909252606081018790526080810186905260019060a0016020604051602081039080840390855afa1580156114e6573d6000803e3d6000fd5b5050604051601f1901519150506001600160a01b0381166115125750600092506001915082905061151c565b9250600091508190505b9450945094915050565b600082600381111561153a5761153a61200f565b03611543575050565b60018260038111156115575761155761200f565b0361158e576040517ff645eedf00000000000000000000000000000000000000000000000000000000815260040160405180910390fd5b60028260038111156115a2576115a261200f565b036115dc576040517ffce698f700000000000000000000000000000000000000000000000000000000815260048101829052602401610521565b60038260038111156115f0576115f061200f565b03610601576040517fd78bce0c00000000000000000000000000000000000000000000000000000000815260048101829052602401610521565b6040805180820190915260008082526020820152826000018263ffffffff168154811061165957611659612025565b60009182526020918290206040805180820190915291015465ffffffffffff81168252660100000000000090046001600160d01b0316918101919091529392505050565b6116a883838361188e565b6001600160a01b0383166117125760006116c160025490565b90506001600160d01b038082111561170f576040517f1cb15d260000000000000000000000000000000000000000000000000000000081526004810183905260248101829052604401610521565b50505b6109ca8383836119d1565b600080608083901c1561173257608092831c92015b604083901c1561174457604092831c92015b602083901c1561175657602092831c92015b601083901c1561176857601092831c92015b600883901c1561177a57600892831c92015b600483901c1561178c57600492831c92015b600283901c1561179e57600292831c92015b600183901c156104a65760010192915050565b60008183106117c0578161099e565b5090919050565b60006117d6600284841861203b565b61099e90848416611fe6565b60006001600160d01b03821115610c55576040516306dfcc6560e41b815260d0600482015260248101839052604401610521565b6000806118426118246106e7565b61183a61183088610e41565b868863ffffffff16565b879190611a47565b915091505b935093915050565b6060600061185c83611a55565b604080516020808252818301909252919250600091906020820181803683375050509182525060208101929092525090565b6001600160a01b0383166118b95780600260008282546118ae9190611fe6565b909155506119449050565b6001600160a01b03831660009081526020819052604090205481811015611925576040517fe450d38c0000000000000000000000000000000000000000000000000000000081526001600160a01b03851660048201526024810182905260448101839052606401610521565b6001600160a01b03841660009081526020819052604090209082900390555b6001600160a01b0382166119605760028054829003905561197f565b6001600160a01b03821660009081526020819052604090208054820190555b816001600160a01b0316836001600160a01b03167fddf252ad1be2c89b69c2b068fc378daa952ba7f163c4a11628f55a4df523b3ef836040516119c491815260200190565b60405180910390a3505050565b6001600160a01b0383166119f3576119f0600a6109a561126f846117e2565b50505b6001600160a01b038216611a1557611a12600a6109b161126f846117e2565b50505b6001600160a01b038381166000908152600860205260408082205485841683529120546109ca9291821691168361120f565b600080611842858585611a96565b600060ff8216601f8111156104a6576040517fb3512b0c00000000000000000000000000000000000000000000000000000000815260040160405180910390fd5b825460009081908015611bd7576000611ab487610cdd600185611fd3565b60408051808201909152905465ffffffffffff80821680845266010000000000009092046001600160d01b031660208401529192509087161015611b24576040517f2520601d00000000000000000000000000000000000000000000000000000000815260040160405180910390fd5b805165ffffffffffff808816911603611b735784611b4788610cdd600186611fd3565b80546001600160d01b039290921666010000000000000265ffffffffffff909216919091179055611bc7565b6040805180820190915265ffffffffffff80881682526001600160d01b0380881660208085019182528b54600181018d5560008d815291909120945191519092166601000000000000029216919091179101555b6020015192508391506118479050565b50506040805180820190915265ffffffffffff80851682526001600160d01b0380851660208085019182528854600181018a5560008a8152918220955192519093166601000000000000029190931617920191909155905081611847565b6000815180845260005b81811015611c5b57602081850181015186830182015201611c3f565b506000602082860101526020601f19601f83011685010191505092915050565b60208152600061099e6020830184611c35565b80356001600160a01b0381168114611ca557600080fd5b919050565b60008060408385031215611cbd57600080fd5b611cc683611c8e565b946020939093013593505050565b600080600060608486031215611ce957600080fd5b611cf284611c8e565b9250611d0060208501611c8e565b9150604084013590509250925092565b600060208284031215611d2257600080fd5b61099e82611c8e565b7fff00000000000000000000000000000000000000000000000000000000000000881681526000602060e081840152611d6760e084018a611c35565b8381036040850152611d79818a611c35565b606085018990526001600160a01b038816608086015260a0850187905284810360c0860152855180825283870192509083019060005b81811015611dcb57835183529284019291840191600101611daf565b50909c9b505050505050505050505050565b600060208284031215611def57600080fd5b5035919050565b803560ff81168114611ca557600080fd5b60008060008060008060c08789031215611e2057600080fd5b611e2987611c8e565b95506020870135945060408701359350611e4560608801611df6565b92506080870135915060a087013590509295509295509295565b600080600080600080600060e0888a031215611e7a57600080fd5b611e8388611c8e565b9650611e9160208901611c8e565b95506040880135945060608801359350611ead60808901611df6565b925060a0880135915060c0880135905092959891949750929550565b60008060408385031215611edc57600080fd5b611ee583611c8e565b9150611ef360208401611c8e565b90509250929050565b60008060408385031215611f0f57600080fd5b611f1883611c8e565b9150602083013563ffffffff81168114611f3157600080fd5b809150509250929050565b600181811c90821680611f5057607f821691505b602082108103611f7057634e487b7160e01b600052602260045260246000fd5b50919050565b634e487b7160e01b600052601160045260246000fd5b6001600160d01b03818116838216019080821115611fac57611fac611f76565b5092915050565b6001600160d01b03828116828216039080821115611fac57611fac611f76565b818103818111156104a6576104a6611f76565b808201808211156104a6576104a6611f76565b634e487b7160e01b600052601260045260246000fd5b634e487b7160e01b600052602160045260246000fd5b634e487b7160e01b600052603260045260246000fd5b60008261205857634e487b7160e01b600052601260045260246000fd5b50049056fea26469706673582212200167ffa594db8d9597c6787901b90c3f7913e80c45b18a16bfdc42d2358a89f864736f6c63430008140033dec2bacdd2f05b59de34da9b523dff8be42e5e38e818c82fdb0bae774387a724",
  "linkReferences": {},
  "deployedLinkReferences": {}
}